:020000040800F2
:100000000812002089010008CF1F0008691A0008A3
:10001000CD1F0008D5030008C12300080000000020
:100020000000000000000000000000004123000864
:100030000F040008000000003122000843230008DC
:10004000A3010008A3010008A3010008A301000800
:10005000A3010008A30100081104000835040008EA
:10006000A3010008A3010008A3010008D9030008A8
:10007000A3010008A3010008A3010008A3010008D0
:10008000A3010008A3010008A3010008A3010008C0
:10009000A3010008A3010008A30100083B04000815
:1000A000A3010008A3010008A3010008A3010008A0
:1000B000A3010008A3010008A3010008A301000890
:1000C000A3010008A3010008A3010008A301000880
:1000D000A3010008A3010008A3010008A301000870
:1000E00017040008A3010008A301000800F002F8AB
:1000F00000F03AF80AA090E8000C82448344AAF188
:100100000107DA4501D100F02FF8AFF2090EBAE885
:100110000F0013F0010F18BFFB1A43F0010318473B
:10012000B0240000D0240000103A24BF78C878C161
:10013000FAD8520724BF30C830C144BF04680C60ED
:10014000704700000023002400250026103A28BF35
:1001500078C1FBD8520728BF30C148BF0B60704739
:100160001FB51FBD10B510BD00F058F81146FFF7C0
:10017000F7FF02F051F900F076F803B4FFF7F2FF51
:1001800003BC00F07DF8000009488047094800479B
:10019000FEE7FEE7FEE7FEE7FEE7FEE7FEE7FEE737
:1001A000FEE7FEE704480549054A064B7047000094
:1001B000BF230008ED0000080802002008120020FC
:1001C000080A0020080A00204FF0000200B513467C
:1001D00094469646203922BFA0E80C50A0E80C5067
:1001E000B1F12001BFF4F7AF090728BFA0E80C5018
:1001F00048BF0CC05DF804EB890028BF40F8042B11
:1002000008BF704748BF20F8022B11F0804F18BF7D
:1002100000F8012B7047704770477047754600F033
:100220002BF8AE4605006946534620F00700854688
:1002300018B020B5FFF7B6FFBDE820404FF000062C
:100240004FF000074FF000084FF0000B21F00701BE
:10025000AC46ACE8C009ACE8C009ACE8C009ACE801
:10026000C0098D46704710B50446AFF300802046A4
:10027000BDE81040FFF781BF00487047A40100208F
:1002800001491820ABBEFEE72600020070470000BF
:1002900070B5044600688168C943C90717D18168F1
:1002A00021F00101816000F03BFD05460AE000BF3E
:1002B00000F036FD401B022804D920688068C04346
:1002C000C00706D020688068C043C007F0D0002077
:1002D00070BDA06A40F01000A062E06A40F001002A
:1002E000E062012070BD10B50146406A826A12F0DA
:1002F000500F05D0006A026BBDE810400846104759
:10030000816A41F40071816201688968C1F34241E8
:1003100007290CD1017B51B9816A21F48071816276
:10032000816AC90403D4816A41F00101816200F04D
:100330000DF910BD10B5406A816A41F0400181623B
:10034000C16A41F00401C16200F002F910BD10B5AC
:10035000406A00F0FCF810BDF8B50026044600968F
:1003600000688168C943C9072DD0816841F0010147
:100370008160164816490068B0FBF1F000E0401EAD
:1003800000900028FBD100F0CBFC054616E000BF32
:1003900000F0C6FC401B022810D920688068C043CA
:1003A000C0070BD0A06A40F01000A062E06A40F0E5
:1003B0000100E06284F824600120F8BD20688068B4
:1003C000C043C007E4D10020F8BD00005800002061
:1003D00040420F00FEE70000014800F017BA00009D
:1003E000B400002030B590F840500124AC40C56BFB
:1003F0006C60046863604368102B036803D09960E5
:100400000068C26030BD9A600068C16030BD70474E
:10041000012000F07FBB10B54FF4006000F07AFBC4
:100420004FF4804000F076FBBDE810404FF40040F0
:1004300000F070BB022000F06DBB10B5402000F052
:1004400069FBBDE81040802000F064BB72B6FEE797
:10045000F8B50024009490F824202546012A12D0F3
:10046000012280F824204A681F23072A0DD206683B
:10047000776B521E02EB820293409F430B689340BE
:100480001F43776319E00220F8BD06680D2A0AD2DF
:10049000376BD21F02EB820293409F430B6893405D
:1004A0001F43376309E0F76A0D3A02EB820293407B
:1004B0009F430B6893401F43F7620A68072306684F
:1004C0000A2A0AD3F7680A3A02EB420293409F4392
:1004D0008B6893401F43F76008E0376902EB4202E4
:1004E00093409F438B6893401F4337610A68102AEB
:1004F00001D0112A20D1124B02689A4217D1936879
:100500001B0219D4936843F400039360096810290F
:1005100012D10C490C4A0968B1FBF2F101EB8101DF
:10052000490000E0491E00910029FBD104E0816AE6
:1005300041F020018162012480F824502046F8BD5A
:10054000002401405800002040420F0070477047CF
:10055000704700002DE9F0414FF0000704003D46D0
:100560007ED0A06A002628B9E66284F8246020467E
:1005700000F07EF82046FFF78BFEA16AC90600D482
:1005800020B1A06A40F01000A06269E0A16A21F4E5
:10059000885141F00201A1626268E169237B0A434C
:1005A00047EA43010A43A1684FF48077B94209D072
:1005B000012907D05FF0000194F814C0BCF1010FCD
:1005C00002D00AE03946F7E7F3B1A36A43F020030B
:1005D000A362E36A43F00103E3622368D3F804C033
:1005E0002CF4694C4CEA010CC3F804C021688B68F8
:1005F000DFF870C003EA0C0313438B60A168B942B3
:100600000BD0012909D00CE0DFF85CC0A3690CEB2A
:1006100043330B4343F40061DFE7218A0D05A5F561
:1006200080152168CB6A23F470032B43CB622168C9
:1006300089680E4B1940914208D1E662A16A21F007
:10064000020141F00101A162BDE8F081A06A20F041
:10065000020040F01000A062E06A40F00100E06299
:100660000120F1E7FDF7E1FF00E0FFFFFE0E1FFFB5
:1006700070B586B000250646009501950295039554
:1006800000681A4988422ED11949886940F40070DF
:100690008861886900F400700490886940F0040063
:1006A00088618869694600F0040004900F2000907A
:1006B000032001900F4800F039FA104C0E48C4E9AD
:1006C00000058020C4E90250400020618000606184
:1006D0002020C4E90605204600F042F908B1FFF7E2
:1006E000B5FE3462666206B070BD000000240140B1
:1006F000001002400008014008000240B400002041
:100700002DE9F047894604463B4900683B4F0E1DE2
:100710009046884201D0B84207D1306810F4702F5B
:1007200003D001252846BDE8F08794F8240001286D
:100730000CD0012084F824002046FFF70DFE0500B0
:100740004FF0000004D084F82400EBE70220EAE731
:10075000A16A40F60162914341F48071A16221686F
:10076000B94218D1326812F4702F14D0A16A41F442
:100770008011A1623168490505D5A16A21F40051B3
:1007800041F48051A162A16AC9040AD5E16A21F04D
:100790000601E16206E0A26A22F48012A2624968C0
:1007A000E9E7E06284F82400216A15488862216A3A
:1007B0001448C862216A1448086321686FF0020077
:1007C00008602068816841F4807181602168434637
:1007D0004A464C31206A00F0F1F820688168C1F384
:1007E00042410729816803D041F48011816099E773
:1007F00041F4A001FAE70000002401400028014074
:10080000E70200084F030008350300082DE9F05FF8
:10081000C16B0C6801680B68D0F840C0042202FA72
:100820000CF2494DDFF824A1494E4A4FDFF828B1B8
:10083000DFF828E122422CD05A072AD50A6892060E
:1008400003D40A6822F004020A600168A94201D1B7
:10085000042219E0514501D1402215E0B14202D1F4
:100860004FF4806210E0B94202D14FF480420BE0B5
:10087000594502D14FF4802206E0714502D14FF470
:10088000800201E04FF080622F4908394A60C16A56
:100890003BE04FF0020808FA0CF818EA040F4FF09A
:1008A00000094FF0010235D05FEA837832D50B683A
:1008B0009B0605D40B6823F00A030B6080F8212007
:1008C0000168A94201D1022219E0514501D120223B
:1008D00015E0B14202D14FF4007210E0B94202D1EA
:1008E0004FF400520BE0594502D14FF4003206E0BC
:1008F000714502D14FF4001201E04FF0007212492D
:1009000008394A6080F82090816A00291AD0BDE831
:10091000F05F0847082505FA0CF5254212D01B07A1
:1009200010D50B6823F00E030B6090F84010C36BDA
:1009300002FA01F15960826380F8212080F820904A
:10094000016BE2E7BDE8F09F080002401C00024096
:100950003000024044000240580002406C00024057
:1009600030B528B308C8134914221944B1FBF2F179
:100970008900C16310498163022141771A6843F6F7
:10098000F0718A43D0E900142143D0E902452C4399
:10099000214304692143446921438469214311436C
:1009A000196000214163012242770177084630BD7A
:1009B000012030BDF8FFFDBF0000024070B50446C5
:1009C00090F82000002501280CD0012084F8200098
:1009D00094F821600020012E06D084F82000022522
:1009E000284670BD022070BD022684F82160A063F5
:1009F0002068066826F0010606602046FFF7F2FC34
:100A0000E06A00282068016802D041F00E0106E08B
:100A100021F0040101602068016841F00A010160D1
:100A20002068016841F001010160D9E770B5044612
:100A300000F076F90546601C02D0044800780444B2
:100A400000F06EF9401BA042FAD370BD4C000020AC
:100A50002DE9F0414FF400410026294B294F012593
:100A6000294C884207D18846184600F04FF9D0B982
:100A7000A661E56017E04FF40061244A884207D17F
:100A80008846104600F042F968B9E660A5610AE0C0
:100A90004FF48041884208D188461D4800F036F95D
:100AA00008B92661A560404627E0022809D0012840
:100AB00010D0802816D18021184600F027F998B16F
:100AC0001AE00221104600F021F908B9A66025615C
:100AD000022012E00121104600F018F908B9E66181
:100AE00065613D60BDE8F081206A10B1012802D047
:100AF00002E0256200E0266280203860F2E7000014
:100B000000080140140401401C000020000C0140BA
:100B100000100140044910B50A68024202D0086082
:100B2000FFF796FF10BD0000140401402DE9F84FB7
:100B3000DFF8B8910024A9F1040B23460F2709F12F
:100B4000040AABF1040EC9E00125A5402A40AA42DF
:100B50007DD1674ED1F804C0ACEB0608B44532D065
:100B600014DCBCF1030F3AD009DCBCF1000F2AD031
:100B7000BCF1010F1CD0BCF1020F31D11DE0BCF162
:100B8000110F17D0BCF1120F2AD119E0B8F5881F48
:100B900019D006DCB8F5803F15D0B8F5801F1FD1FD
:100BA00011E0B8F5001F0ED0B8F5041F18D10AE007
:100BB000CB6815E0CB681B1D12E0CB6808330FE053
:100BC000CB680C330CE08B682BB1012B4FF0080382
:100BD00003D0456104E0042302E0056100E0002346
:100BE000FF2A01D8064601E000F104064FEA840519
:100BF00001D9A5F12005D6F8008007FA05FC28EAFE
:100C00000C0803FA05F548EA0508C6F800804D68A7
:100C1000ED0062D5374DAE6946F00106AE61AD69B3
:100C200024F0030605F001050095334D06EB050C95
:100C3000DCF80850A607360F07FA06F825EA08057B
:100C4000DFF8B880404503D14FF0000817E044E0DA
:100C5000DFF8AC80404502D14FF001080FE0DFF82B
:100C6000A480404502D14FF0020808E0DFF89880E8
:100C7000404502D14FF0030801E04FF0040808FAA4
:100C800006F848EA0508CCF808804D68D9F80060F5
:100C9000ED024D4601D5164300E096432E604D68A7
:100CA000DAF80060AD02554601D5164300E09643E0
:100CB0002E604D68DBF80060AD035D4601D516433C
:100CC00000E096432E604D68DEF80060ED03754647
:100CD00001D5164300E096432E60641C0D682A4639
:100CE000E5407FF431AFBDE8F88F00000804014013
:100CF00000001110001002400000014000080140F7
:100D0000000C0140001001400014014080680840C0
:100D100000D0012070470AB1016170470904FBE768
:100D200001488068704700004C00002070B5040046
:100D300025D094F83D00002520B984F83C50204689
:100D400000F050F9242084F83D002068016821F06B
:100D5000010101602068016841F4004101602068E0
:100D6000016821F40041016000F018FB4D4A616800
:100D7000914201D84C4900E04C49884201D20120FF
:100D800070BD4B492368B0FBF1F15E6826F03F0669
:100D90000E435E606368934206D94FF496735943DD
:100DA0004FF47A73B1FBF3F12368491C1E6A26F0F5
:100DB0003F06314319626168914210D84900401ED4
:100DC000B0FBF1F2521CC2F30B02042A01D2042040
:100DD00022E0B0FBF1F0401CC0F30B001CE0A26865
:100DE000F2B301EBC10303EB0116431EB3FBF6F3B1
:100DF0005B1C43F480431B0549D092B301EBC10255
:100E000002EB0111401EB0FBF1F0401CC0F30B00DF
:100E100040F4804040F400402168CA694CF6FF73FA
:100E20009A431043C861D4E907100143206802685F
:100E300022F0C00211430160D4E90301014320689C
:100E4000826848F2FF339A4311438160D4E9050177
:100E500008432168CA6822F0FF021043C86001E01D
:100E60000EE016E02068016841F001010160256490
:100E7000202084F83D00256384F83E50002070BD9A
:100E800001EB4106431EB3FBF6F35B1CB3E7012005
:100E9000C2E701EB4101401EB0FBF1F0401CC0F382
:100EA0000B00B7E7A086010080841E0000093D000A
:100EB00040420F002DE9FF4F83B09A46DDE91197BC
:100EC00093460446DDF84080FFF72AFF054694F874
:100ED0003D0020287FD1192301224049204600955A
:100EE00000F05AFE002876D194F83C00012872D018
:100EF000012084F83C0020680168C90703D101681B
:100F000041F0010101602068016821F40061016085
:100F1000212084F83D00402084F83E00002626640D
:100F2000C4F82480A4F82A90608D20852C48E062C3
:100F3000CDE9007553465A462046049900F0ACFDB1
:100F400070B930E02A463946204600F0CBFE58B151
:100F5000206C042804D12068016841F4007101600C
:100F6000012007B0BDE8F08F606A21680078086151
:100F7000606A401C6062218D491E89B22185628DA4
:100F8000521E628522685369DB435B070BD469B14B
:100F900000781061606A401C6062208D401E2085D0
:100FA000608D401E6085208D0028CBD12A463946B1
:100FB000204600F0C5FD0028CAD154F83D0B016859
:100FC00041F400710160202004F81E09E67766777D
:100FD0000020C6E7FFE70220C3E700000200100080
:100FE0000000FFFF10B586B0002100910191029131
:100FF000039100681349884222D1134CA06940F044
:101000000800A061A069694600F0080004904FF450
:101010004070009012200190032003900B48FFF7CE
:1010200085FD0B48416841F0E06141F002014160FB
:10103000E06940F40010E061E06900F40010049001
:1010400006B010BD0054004000100240000C0140EA
:1010500000000140024881680278114481607047B5
:101060004C000020074810B5016841F010010160F4
:10107000032000F075F80F2000F006F800F024F8C7
:10108000002010BD0020024070B50D4D04464FF405
:101090007A712878B1FBF0F00A490968B1FBF0F0E9
:1010A00000F0CEFC48B9102C07D200222146501E79
:1010B00000F036F800206C6070BD012070BD0000AB
:1010C0004C000020580000200C4808B5816941F010
:1010D00001018161816901F001010091C16941F063
:1010E0008051C161C06900F080500090044841689F
:1010F00021F0E06141F00071416008BD0010024044
:1011000000000140002809DB00F01F02012191408E
:101110004009800000F1E020C0F800117047000095
:10112000F0B40E4B1B680C46C3F30223C3F1070552
:10113000042D00D90425191D072901D2002300E040
:10114000DB1E012606FA05F1491E214099409E400A
:10115000761E16403143F0BC01F04EB90CED00E0B4
:10116000064900F0070208684FF6FF03184040EAFE
:101170000220034A10430860704700000CED00E0B5
:101180000000FA052DE9F84305460078354CC00704
:1011900054D0E0690026C00008D4E06940F08050D7
:1011A000E061E069012600F0805000902E4801685F
:1011B000C90512D40168804641F480710160FFF7CF
:1011C000AFFD074605E000BFFFF7AAFDC01B64287E
:1011D00023D8D8F80000C005F6D5206A10F4407076
:1011E00021D0A98801F4407181421CD0206A1F4996
:1011F000012220F440700A6000220A602062C007C9
:1012000011D0FFF78DFD074641F2883808E000BF96
:10121000FFF786FDC11B414502D90320BDE8F883D5
:10122000206A8007F4D5206A696820F4407008437A
:1012300020621EB1E06920F08050E06128788007CC
:1012400005D56068A96820F44040084360602878AC
:10125000C00605D56068E96820F480000843606036
:101260000020DBE7001002400070004040044242D2
:101270002DE9F0470F46050061D0434E306800F07D
:101280000700B84209D2306820F0070038433060C8
:10129000306800F00700B84251D128683B4C810704
:1012A00012D5400703D5606840F4E060606028789C
:1012B000000703D5606840F4605060606068A9680A
:1012C00020F0F000084360602878C00728D06868E4
:1012D000012810D02168022810D0890700292EDAB1
:1012E000616821F0030101436160FFF719FD804649
:1012F00041F288390DE021688903EFE78901EDE7C4
:10130000FFF70EFDA0EB0801494502D90320BDE817
:10131000F0876068696800F00C00B0EB810FEFD1D6
:10132000306800F00700B8420BD9306820F00700A1
:1013300038433060306800F00700B84201D0012027
:10134000E5E72878400705D56068E96820F4E060A3
:10135000084360602878000706D56068296920F492
:10136000605040EAC100606000F028F86168084AF7
:10137000C1F30311515CC840064908600648006883
:10138000FFF782FE0020C2E700200240001002406A
:10139000B8250008580000205000002004480549E6
:1013A00000684968044AC1F30221515CC840704793
:1013B0005800002000100240C82500080E4A51685D
:1013C0000E4801F00C03042B11D0082B0FD10C4850
:1013D000C1F38343C903C05C0AD55168084AC1F30D
:1013E0004041921E515C054A5043B0FBF1F07047FA
:1013F00004494843704700000010024000127A0080
:10140000A825000800093D002DE9F84F040070D020
:101410002078C04DC00749D06868C0F3810001281A
:1014200007D06868C0F38100022809D16868C0034A
:1014300006D52868800339D560680028E7D035E0F4
:101440006068B0F5803F0BD010B1B0F5A02F11D07F
:10145000286820F480302860286820F4802002E08A
:10146000286840F480302860606890B1FFF758FC2D
:1014700006460AE0286840F480202860F0E700BFB4
:10148000FFF74EFC801B642873D828688003F7D5CB
:101490000CE0FFF745FC064605E000BFFFF740FC07
:1014A000801B6428F0D828688003F7D420789A4EEF
:1014B00080074FF001094FF0000839D5686810F037
:1014C0000C0F07D06868C0F38100022809D1686852
:1014D000C00306D42868800714D52069012808D1E4
:1014E00010E02069B0B1C6F80090FFF719FC07467C
:1014F00005E00AE1FFF714FCC01B0228C4D82868E5
:101500008007F7D52868616920F0F80040EAC1003B
:1015100028600DE0C6F80080FFF702FC074604E0F3
:10152000FFF7FEFBC01B022823D828688007F7D4EA
:10153000207800072CD57948A169D9B1C0F800906E
:10154000FFF7EEFB074604E0FFF7EAFBC01B0228AB
:101550000FD8686A8007F7D571484FF4FA510068D0
:10156000B0FBF1F0009000BF0098411E0091FAD24C
:101570000EE080E0C0F80080FFF7D2FB074604E0F1
:10158000FFF7CEFBC01B022875D8686A8007F7D426
:101590002078400760D5E8690027C00008D4E869D2
:1015A00040F08050E861E869012700F08050009029
:1015B0005C480168C90513D40168834641F4807111
:1015C0000160FFF7ADFB824606E000BFFFF7A8FB16
:1015D000A0EB0A0064284ED8DBF80000C005F5D562
:1015E000E06801280AD008B1052813D0286A20F045
:1015F00001002862286A20F0040002E0286A40F016
:1016000001002862E06841F2883B98B1FFF788FB4F
:1016100082460BE0286A40F004002862EEE700BF33
:10162000FFF77EFBA0EB0A0159455AD8286A8007CC
:10163000F6D50CE0FFF774FB824605E0FFF770FB80
:10164000A0EB0A0159454CD8286A8007F6D41FB18F
:10165000E86920F08050E861E06988B36968C1F307
:101660008101022944D00228C6F8608004D0FFF727
:1016700057FB044638E034E0FFF752FB074604E02E
:10168000FFF74EFBC01B02282BD828688001F7D437
:10169000206AB0F5803F05D16868A16820F4003069
:1016A00008436860D4E908010843696821F47411AB
:1016B00008436860C6F86090FFF732FB044606E016
:1016C00025E000BFFFF72CFB001B022809D8286883
:1016D0008001F7D51BE000BFFFF722FB001B0228AB
:1016E00002D90320BDE8F88F28688001F4D40EE009
:1016F0000128F7D06868226A00F48031914204D151
:10170000616A00F47010884201D00120EAE70020ED
:10171000E8E700000010024000004242800442421C
:10172000580000200070004070B5040009D0606AC5
:10173000002540B125616561A56294F8510040B172
:101740000CE0012070BD6068B0F5827FF4D0E561E7
:10175000F2E784F85050204600F040F8022084F868
:1017600051002068016821F040010160A0882189B2
:1017700000F4827001F404410843A18901F400617E
:101780000843217C01F002010843217D01F00101A1
:101790000843218B01F400710843217F01F03801D7
:1017A000084394F8201001F080010843218D01F4D2
:1017B0000051084321680860A069042101EA104033
:1017C000216848602068C16921F40061C1616565D4
:1017D000012084F85100002070BD000030B585B0B4
:1017E00000240094019402940394006815498842EF
:1017F00025D11548C16941F48041C161C16901F435
:1018000080410491816941F00801816180690F4D37
:1018100000F0080004904FF4204000900220019056
:101820000320039069462846FFF780F94FF4804073
:10183000CDE90004694628460294FFF777F905B020
:1018400030BD00000038004000100240000C014094
:101850002DE9FF4F81B01D46934604464FF0010924
:101860000E9EFFF75DFA074694F851006168012863
:1018700006D0B1F5827F3CD1A168C9BB042838D11C
:101880000298002871D0BBF1000FFBD0002DF9D0D9
:1018900094F8500001282CD04FF0010A84F850A091
:1018A00094F85100042802D0052084F851004FF02C
:1018B0000008C4F85480C4F838B0E587A5870299B9
:1018C0002163E586A586C4F84080C4F8448020687A
:1018D0000168490603D4016841F040010160E068F5
:1018E000B0F5006F606808D0F0B3012D49D081E0F9
:1018F000FFE7022005B0BDE8F08F08B1012D39D116
:10190000206B21680088C860206B801C2063E08EFB
:10191000401EE0862EE02068816889070FD5E18EA1
:1019200069B1B9F1010F0AD1216B0988C160206B3F
:10193000801C2063E08E401EE0864FF00009206886
:101940008168C9070CD0E18F51B1C068A16B0880D4
:10195000A06B801CA063E08F401EE0874FF0010960
:10196000FFF7DEF9C01B01E00BE067E0B04201D3F6
:10197000701C50D1E08E0028CDD1E08F0028CAD154
:101980003EE0206B216800780873206B401C2063C8
:10199000E08E401EE0862DE02068816889070FD523
:1019A000E18E69B1B9F1010F0AD1216B0978017398
:1019B000206B401C2063E08E401EE0864FF0000943
:1019C00020688168C9070CD0E18F51B1C068A16B54
:1019D0000870A06B401CA063E08F401EE0874FF0B2
:1019E0000109FFF79DF9C01BB04202D3701C01D062
:1019F00011E086B1E08E0028CED1E08F0028CBD157
:101A00003A463146204600F014FC50B12020606573
:101A100084F8508012E084F851A084F850800320AC
:101A200068E7A06818B92068C1688068009084F8E9
:101A300051A084F85080606D0028F1D0012059E752
:101A400010B5401EB0F1807F01D3012010BD4FF0D2
:101A5000E02460610F21601700F0CEFC0020A0613F
:101A600007202061002010BDFEE701684A69D243CB
:101A700052050FD46FF480624A61002140F8301F94
:101A8000202242738173026942F0040202610173F1
:101A900001207047002070472DE9F8430446006894
:101AA0000D46DDE9089701689846164641F48071B5
:101AB00001604B4600224FF001112046009700F0D4
:101AC0006BF848B120680068C00502D54FF400707B
:101AD00020640320BDE8F883216805F0FE0008615A
:101AE0003B464A461549204600F09EF888B92068D2
:101AF0004169806900903A464946204600F0F2F874
:101B000048B1206C042804D12068016841F40071B8
:101B100001600120DEE7F5B2B8F1010F09D02168BC
:101B2000300A08613A464946204600F0DBF80028B2
:101B3000E7D1206805610020CCE700000200010029
:101B400070B516460D4604461EE02046FFF78DFF91
:101B500008B1012070BD681C16D0FFF7E1F8801BAA
:101B6000A84200D885B920684069C04340070BD51A
:101B7000002044F8300F20216173A073216941F0E7
:101B8000200121612073E4E720684069C0434007D9
:101B9000DBD4002070BD00002DE9F04798461746C1
:101BA0000D460446C1F30746DDF820902AE000BF49
:101BB000B8F1FF3F26D0FFF7B3F8A0EB090141458C
:101BC00002D8B8F1000F1DD12068012E16D080690F
:101BD00025EA00000004000C12D00020B84211D108
:101BE000002044F8300F20216173A073216941F077
:101BF0002001216120730120BDE8F0874069E7E7FB
:101C00000120EBE72068012E0AD0806925EA000058
:101C10000004000C06D00020B842C9D00020EBE739
:101C20004069F3E70120F7E72DE9F04798461646AB
:101C30000D4604464FF000094FF0200AC1F3074754
:101C400023E020684069C043400515D4206801683E
:101C500041F40071016021686FF480604861C4F84C
:101C6000309084F83DA084F83E90216C41F004014E
:101C7000216484F83C9021E0701C06D0FFF750F8F6
:101C8000A0EB0800B04203D816B1012F1FD021E00D
:101C90002068012F15D0806925EA00000004000C9F
:101CA00018D000BF44F8309F84F80DA084F80E903F
:101CB000216941F02001216184F80C900120BDE8E8
:101CC000F087406925EA00000004000CEAD1206892
:101CD000406901E02068806925EA00000004000CEA
:101CE000AFD1ECE770B516460D4604461EE020461F
:101CF000FFF7BBFE08B1012070BD681C16D0FFF7CE
:101D00000FF8801BA84200D885B920684069C043FD
:101D100000060BD5002044F8300F20216173A0731A
:101D2000216941F0200121612073E4E720684069C6
:101D3000C0430006DBD4002070BD0000FEB50024C7
:101D40002048009401941E49029401608915816025
:101D5000012505730475042606614FF46021446073
:101D6000C161FEF7F7FB08B1FEF770FB0720009496
:101D7000CDE9015069461348FEF76AFB08B1FEF74A
:101D800065FB0224CDE9005469460E48FEF760FB6E
:101D900008B1FEF75BFB00940324694609480194EF
:101DA000FEF756FB08B1FEF751FBCDE90046694648
:101DB0000448FEF74DFB002801D0FEF747FBFEBDAF
:101DC0000024014084000020094808B5416941F021
:101DD000010141614069002200F0010000901146BC
:101DE0000B20FFF79DF9BDE808400B20FFF78AB9EB
:101DF000001002402DE9F04F85B000254C480095B9
:101E0000019502950395816941F010018161816915
:101E100001F010010491816941F020018161816923
:101E200001F020010491816941F00401816181691F
:101E300001F004010491816941F008018161806928
:101E4000012200F00800DFF8ECA0170304903946E7
:101E50005046FEF760FFDFF8E0B04FF40068002264
:101E600041465846FEF757FF344EB800CDE900060C
:101E7000DFF8CC900124694602944846FEF756FEEE
:101E8000E003CDE90005694602944846FEF74EFEA0
:101E900048F2C000CDE90006694602945846FEF7B4
:101EA00045FE40F60300CDE900066946029450461F
:101EB000FEF73CFE01AA0326009782E870006946FF
:101EC0005046FEF733FE2002CDE900056946029434
:101ED0005846FEF72BFE01AACDF8008082E870007C
:101EE00069465846FEF722FE002211460620FFF7FB
:101EF00017F90620FFF706F9002211460720FFF721
:101F00000FF90720FFF7FEF8002211461720FFF710
:101F100007F91720FFF7F6F8002211462820FFF7EF
:101F2000FFF82820FFF7EEF805B0BDE8F08F0000BD
:101F300000100240000C0140000801400000211088
:101F4000001001400D4810B50B4901600C4941607B
:101F500000214FF480428160C0E903124161816138
:101F6000C1610162FEF7E2FE002803D0BDE8104027
:101F7000FEF76CBA10BD000000540040F8000020CD
:101F8000A0860100104810B50E4901604FF482711F
:101F9000416000218160C1604FF400720161C0E9BD
:101FA00005120822C0E90721416281620A21C1624B
:101FB000FFF7BAFB002803D0BDE81040FEF746BA91
:101FC00010BD0000003800404C010020FEE7FEE795
:101FD0001CB50FA10522D1E90001CDE90001694638
:101FE000302000F0CFF805226946102000F014F8E8
:101FF000002069460A5CA52A03D1401CC0B205280E
:10200000F8D3052801D001201CBD00201CBD000014
:10201000A5A5A5A5A50000002DE9F047DFF844908F
:1020200015460F4604464FF4805800224146484664
:10203000FEF771FE21460C4800F072F906460024B6
:1020400006E0FF21084800F06BF93855641CE4B243
:10205000AC42F6D3012241464846FEF75CFE3046CC
:10206000BDE8F087000C01404C01002070B50C4E1B
:1020700004464FF48055002229463046FEF74BFEB9
:102080002146084800F04CF9FF21064800F048F9C5
:102090000446012229463046FEF73DFE204670BD2B
:1020A000000C01404C01002070B51A4D4FF4006443
:1020B000002221462846FEF72EFE05221649302032
:1020C00000F060F814490522491D2A2000F05AF852
:1020D0000121212000F082F80121222000F07EF869
:1020E000FF21242000F07AF82821252000F076F83E
:1020F0000F21262000F072F80E21202000F06EF84B
:10210000012221462846FEF706FEBDE87040012068
:10211000FEF78CBC000801409C25000870B5184CE7
:1021200005464FF40066002231462046FEF7F3FDD7
:1021300020222946A02000F025F801223146204621
:10214000FEF7E9FDA51529462046FEF7DFFD00282C
:10215000F9D10720FFF78AFF04460146272000F047
:102160003DF8E00605D5FF21E12000F037F810200A
:1021700070BDA00601D5202070BDFF2070BD0000FD
:10218000000801402DE9F047DFF8489016460D465B
:1021900004464FF48058002241464846FEF7BBFDF6
:1021A00021460D4800F0BCF80746002407E000BFB8
:1021B00015F8011B084800F0B3F8641CE4B2B442FF
:1021C000F6D3012241464846FEF7A5FD3846BDE854
:1021D000F0870000000C01404C0100202DE9F04187
:1021E0000D4E0F4604464FF48055002229463046D6
:1021F000FEF791FD2146094800F092F80446394661
:10220000064800F08DF8012229463046FEF783FD8E
:102210002046BDE8F0810000000C01404C01002088
:1022200010B5C820FEF702FCBDE8104000F0CAB8A7
:102230007047F8B515460E460B460092044601223B
:10224000022100F011F840B93346002280212046D7
:10225000009500F009F8002804D0606D40F02000DF
:1022600060650320F8BD00002DE9F8431E46914645
:1022700088460446089DFEF753FD401B351AFEF7BD
:102280004FFD074625480068C0F3CB30684338E06F
:10229000701C37D0FEF744FDC01BA84203D215B115
:1022A000009860B32CE02068416821F0E0014160B3
:1022B0006068B0F5827F0BD1A068B0F5004F02D006
:1022C000B0F5806F04D12068016821F04001016001
:1022D000A06AB0F5005F09D12068016821F40051BF
:1022E00001602068016841F400510160012084F818
:1022F0005100002084F850000320BDE8F883002539
:10230000401E00902068816838EA010004D0002156
:102310004945BDD10020F0E70121F9E75800002030
:102320003EB5FF248DF80810012301AA02A90094EC
:10233000FFF78EFA08B18DF804409DF804003EBD09
:102340007047FEF787BE30B593B028216846FDF789
:102350003BFF14210AA8FDF737FF002402250120C6
:102360000F94049000951020059012944FF42010C3
:10237000CDE908401194109407956846FFF744F89A
:1023800008B172B6FEE70F20CDE90A054FF4806070
:10239000CDE90C4001210AA80E94FEF769FF08B1AF
:1023A00072B6FEE74FF4804011900F950FA8FEF72C
:1023B000E9FE002801D072B6FEE713B030BD7047C9
:1023C000FEE70000FEB50024094F4FF4807501269A
:1023D0003819CDE90006012300227821029505482D
:1023E000FEF768FD641CE4B21B2CF1D3FEBD0000B7
:1023F00000000020F80000200907090E002804DB77
:1024000000F1E02080F80014704700F00F0000F1A8
:10241000E02080F8141D7047FEF724FEFFF793FFBD
:10242000FFF7E8FCFFF7D0FCFFF78CFDFFF786FC19
:10243000FFF7A8FD0026554C4FF47A7503E02846B7
:102440002660FEF7F3FAFFF7C3FD0028F7D1FFF788
:10245000E7FEFFF729FE4D4F4D4D4FF4004B4FF077
:10246000010928374FF014084FF0020A2068474945
:10247000401C2060042228314648FEF741F9206ABA
:10248000012806D185F81B900220C4F82490FEF79D
:10249000CDFA206A00B9EE7659463F48FEF736FC81
:1024A00050B91420FEF7C2FA59463B48FEF72EFCFD
:1024B00010B9C4F81C906661606A012806D13448DE
:1024C000FFF72CFE202805D0C4F804A0E0690128FD
:1024D00003D004E003206060F8E7616919B1616925
:1024E000012903D004E085F81D9001E000B96E7762
:1024F000E068012801D038B10CE0A06950B985F836
:102500001C9085F814A005E0A069012802D12E775F
:1025100085F81490A068012817D10720A87700201B
:102520004FEA080137F810202B18B2FBF1F2401CDB
:102530005A700428F6DD0220FEF778FA1448FFF7F7
:10254000EDFD20281CD0C4F804A0206901288DD1FD
:102550000620A8770020414637F810202B18B2FB40
:10256000F1F2401C5A700428F6DD0220FEF75EFAF4
:102570000748FFF7D3FD202805D0C4F804A075E76D
:1025800003206060E1E7032060606FE71C0000202B
:102590005C000020840000200010014016580689CD
:1025A00022165806892201020203040506070809BB
:1025B0000A0B0C0D0E0F10100000000000000000B0
:1025C00001020304060708090000000001020304D9
:1025D000F0250008000000205C0000002801000831
:1025E0004C2600085C000020AC11000044010008EB
:1025F000AE001040B081FFA1A6A83FC8D300D5808F
:10260000D805D9F1DA12D8308D14AF0001000000DE
:102610000100000000000000200000002000000079
:1026200000000000000000000000000000000000AA
:102630000000000000000000000000000100000099
:0C264000100000000000000000127A00F2
:04000005080000ED02
:00000001FF
